:020000040800F2
:1000000000100020791D0008750500087B05000818
:1000100000000000000000000000000000000000E0
:100020000000000000000000000000008105000842
:1000300000000000000000008B0500089505000886
:10004000C91D000800000000C91D0008C91D0008E6
:10005000C91D0008C91D0008C91D0008C91D0008E8
:1000600000000000C91D0008C91D0008C91D0008C6
:10007000C91D0008C91D0008C91D000800000000B6
:10008000C91D00080000000000000000C91D000894
:1000900000000000C91D0008C91D0008C91D000896
:1000A00000000000C91D000800000000C91D000874
:1000B0000000000000000000000000000000000040
:1000C00010B5064C2378002B07D1054B002B02D02E
:1000D000044800E000BF0123237010BD0C00002085
:1000E00000000000241E0008044B10B5002B03D0B4
:1000F0000349044800E000BF10BDC04600000000F6
:1001000010000020241E0008002243088B4274D3F4
:1001100003098B425FD3030A8B4244D3030B8B4208
:1001200028D3030C8B420DD3FF22090212BA030C11
:100130008B4202D31212090265D0030B8B4219D3F2
:1001400000E0090AC30B8B4201D3CB03C01A524112
:10015000830B8B4201D38B03C01A5241430B8B425A
:1001600001D34B03C01A5241030B8B4201D30B0343
:10017000C01A5241C30A8B4201D3CB02C01A52416A
:10018000830A8B4201D38B02C01A5241430A8B422D
:1001900001D34B02C01A5241030A8B4201D30B0216
:1001A000C01A5241CDD2C3098B4201D3CB01C01A30
:1001B000524183098B4201D38B01C01A524143093A
:1001C0008B4201D34B01C01A524103098B4201D328
:1001D0000B01C01A5241C3088B4201D3CB00C01A95
:1001E000524183088B4201D38B00C01A524143080D
:1001F0008B4201D34B00C01A5241411A00D2014632
:10020000524110467047FFE701B5002000F006F8A4
:1002100002BDC0460029F7D076E770477047C04658
:1002200080B500AF00F0C2F900F024F800F0CAF881
:1002300000F06EF80E4B0021180001F071F99023C8
:10024000DB0501221021180000F05CFCFA239B0062
:10025000180000F00FFA9023DB050022102118008F
:1002600000F050FCFA239B00180000F003FAE6E7C8
:100270002C00002080B590B000AF1023FB181800B0
:1002800030231A00002101F0C5FD3B0018001023A7
:100290001A00002101F0BEFD1023FB1801221A6094
:1002A0001023FB1801225A601023FB1802221A6245
:1002B0001023FB18802252025A621023FB1880225E
:1002C00012039A621023FB180022DA621023FB1833
:1002D000180000F035FC031E01D000F0BFF83B0011
:1002E00007221A603B0002225A603B0000229A60FB
:1002F0003B000022DA603B000121180000F03AFFC9
:10030000031E01D000F0AAF8C046BD4610B080BD63
:1003100080B588B000AF3B1D18001C231A000021D7
:1003200001F078FD244B254A1A60234B244A5A6079
:10033000214B00229A60204B6322DA601E4B002280
:100340001A611D4B00229A611B4B180001F040F806
:10035000031E01D000F082F8174B180001F088F856
:10036000031E01D000F07AF8134B0821180001F0A9
:100370007DF9031E01D000F071F83B1D60221A6068
:100380003B1D00225A603B1D00229A603B1D00224B
:100390001A61391D084B0022180001F0C1F9031E33
:1003A00001D000F05BF8044B180000F09FF8C04645
:1003B000BD4608B080BDC0462C0000200020004093
:1003C000FF18000080B588B000AF0C23FB181800A0
:1003D00014231A00002101F01DFD1F4B1E4A526913
:1003E0008021C9030A435A611B4B5A698023DB03EE
:1003F0001340BB60BB68184B174A526980218902C1
:100400000A435A61144B5A6980239B0213407B6054
:100410007B689023DB0500221021180000F072FB9E
:100420000C23FB1810221A600C23FB1801225A60BF
:100430000C23FB1800229A600C23FB180122DA60BF
:100440000C23FA189023DB051100180000F0EAF9DC
:10045000C046BD4608B080BD0010024080B500AF68
:1004600072B6FEE780B582B000AF0F4B0E4A9269BC
:1004700001210A439A610C4B9B69012213407B6066
:100480007B68094B084AD269802149050A43DA6131
:10049000054BDA6980235B0513403B603B68C0462F
:1004A000BD4602B080BDC0460010024080B584B099
:1004B00000AF78607B681B680A4A93420DD10A4BF3
:1004C000094AD269802149000A43DA61064BDA6998
:1004D00080235B001340FB60FB68C046BD4604B050
:1004E00080BDC046002000400010024080B588B0AA
:1004F00000AF78600C23FB18180014231A000021A9
:1005000001F088FC7B681B68184A934229D1184B7C
:10051000174A5269802189020A435A61144B5A6969
:1005200080239B021340BB60BB680C23FB18802216
:100530001A600C23FB1802225A600C23FB180022BD
:100540009A600C23FB180122DA600C23FB180422AA
:100550001A610C23FA189023DB051100180000F033
:1005600061F9C046BD4608B080BDC04600200040CD
:100570000010024080B500AFFEE780B500AFFEE797
:1005800080B500AFC046BD4680BD80B500AFC04657
:10059000BD4680BD80B500AF00F050F8C046BD46F6
:1005A00080BD80B500AFC046BD4680BD80B500AF00
:1005B000074B074A126810210A431A60032000F013
:1005C00009F8FFF74FFF00231800BD4680BDC04665
:1005D0000020024090B583B000AF7860144B1C68D7
:1005E000144B1B781900FA239800FFF78DFD0300C8
:1005F00019002000FFF788FD0300180000F004F93F
:10060000031E01D001230FE07B68032B0BD8796810
:1006100001235B420022180000F0E0F8064B7A68E4
:100620001A60002300E001231800BD4603B090BD0E
:1006300000000020080000200400002080B500AF6A
:10064000054B1B781A00054B1B68D218034B1A6028
:10065000C046BD4680BDC046080000207400002092
:1006600080B500AF024B1B681800BD4680BDC04678
:100670007400002080B584B000AF7860FFF7F0FF11
:100680000300BB607B68FB60FB68013305D0094B4E
:100690001B781A00FB689B18FB60C046FFF7E0FF61
:1006A0000200BB68D21AFB689A42F7D3C046BD4627
:1006B00004B080BD08000020B0B582B000AF0200D9
:1006C0003960FB1D1A70FB1D1B787F2B28D82F4C1F
:1006D000FB1D1B785BB29B082C49FA1D127852B2A5
:1006E0009208C03292005258F91D0978080003217F
:1006F0000140C900FF2088400100C94311403A6809
:100700009201FF201040FA1D1278150003222A40A2
:10071000D200904002000A43C0339B001A5131E0DE
:100720001B4CFB1D1B781A000F231340083B990834
:10073000174AFB1D1B7818000F230340083B9B083A
:1007400006339B00D31804331B68FA1D127810007F
:1007500003220240D200FF2090400200D2431A4000
:100760003B689B01FF201840FB1D1B781D000323E5
:100770002B40DB00984003001A438B1D9B00E318BD
:1007800004331A60C046BD4602B0B0BD00E100E0CF
:1007900000ED00E080B582B000AF78607B68013B7F
:1007A0000C4A934201D9012310E00B4B7A68013ABD
:1007B0005A6001235B4203211800FFF77DFF064BBF
:1007C00000229A60044B07221A6000231800BD46DD
:1007D00002B080BDFFFFFF0010E000E080B584B0F4
:1007E00000AFB9607A600F23FB18021C1A70BA6858
:1007F0000F23FB181B785BB211001800FFF75CFF9A
:10080000C046BD4604B080BD80B582B000AF786000
:100810007B681800FFF7BEFF03001800BD4602B05A
:1008200080BD000080B586B000AF786039600023DD
:100830007B614FE13B681B6801217A6991400A00A6
:100840001340FB60FB68002B00D140E13B685B6814
:1008500003221340012B05D03B685B680322134041
:10086000022B30D17B689B683B617B695B00032274
:100870009A401300DA433B6913403B613B68DA68F6
:100880007B695B009A4013003A6913433B617B68C4
:100890003A699A607B685B683B6101227B699A4098
:1008A0001300DA433B6913403B613B685B681B09FB
:1008B00001221A407B699A4013003A6913433B6155
:1008C0007B683A695A603B685B6803221340032BDC
:1008D00017D07B68DB683B617B695B0003229A4031
:1008E0001300DA433B6913403B613B689A687B69BC
:1008F0005B009A4013003A6913433B617B683A6995
:10090000DA603B685B6803221340022B23D17B69CA
:10091000DA087B6808329200D3583B617B69072272
:1009200013409B000F229A401300DA433B691340A7
:100930003B613B681A697B6907210B409B009A4029
:1009400013003A6913433B617B69DA087B6808321C
:1009500092003969D1507B681B683B617B695B0001
:1009600003229A401300DA433B6913403B613B6822
:100970005B6803221A407B695B009A4013003A6966
:1009800013433B617B683A691A603B685A68C0232D
:100990009B02134000D19AE0544B544A92690121C2
:1009A0000A439A61514B9B6901221340BB60BB68AB
:1009B0004F4A7B699B0802339B009B583B617B69D4
:1009C000032213409B000F229A401300DA433B6935
:1009D00013403B617A689023DB059A4213D07B6811
:1009E000444A93420DD07B68434A934207D07B68C8
:1009F000424A934201D1032306E0052304E0022387
:100A000002E0012300E000237A6903210A409200FA
:100A100093403A6913433B6135497B699B08023334
:100A20009B003A695A50364B1B683B61FB68DA43BE
:100A30003B6913403B613B685A6880235B0213406B
:100A400003D03A69FB6813433B612D4B3A691A6046
:100A50002B4B5B683B61FB68DA433B6913403B61AE
:100A60003B685A6880239B02134003D03A69FB68B5
:100A700013433B61224B3A695A60214B9B683B61AF
:100A8000FB68DA433B6913403B613B685A6880234B
:100A90005B03134003D03A69FB6813433B61184B77
:100AA0003A699A60164BDB683B61FB68DA433B6945
:100AB00013403B613B685A6880239B03134003D07B
:100AC0003A69FB6813433B610D4B3A69DA607B6915
:100AD00001337B613B681A687B69DA40131E00D0E2
:100AE000A8E6C046BD4606B080BDC0460010024024
:100AF000000001400004004800080048000C0048C5
:100B00000004014080B582B000AF78600800110099
:100B1000BB1C021C1A807B1C0A1C1A707B1C1B78D5
:100B2000002B04D0BB1C1A887B689A6103E0BB1CB5
:100B30001A887B689A62C046BD4602B080BD00003C
:100B400080B588B000AF78607B68002B01D10123AD
:100B500002E37B681B680122134000D18DE0C44B87
:100B60005B680C221340042B0ED0C14B5B680C2237
:100B70001340082B16D1BE4B5A6880235B021A40E3
:100B800080235B029A420DD1B94B1A6880239B02E5
:100B9000134000D170E07B685B68002B00D06BE0F5
:100BA0000123D9E27B685B68012B07D1B04BB04AC7
:100BB0001268802149020A431A602FE07B685B6853
:100BC000002B0CD1AA4BAA4A1268AA490A401A6003
:100BD000A74BA74A1268A8490A401A601EE07B6822
:100BE0005B68052B0ED1A24BA14A12688021C90275
:100BF0000A431A609E4B9E4A1268802149020A43AA
:100C00001A600BE09A4B9A4A12689A490A401A6095
:100C1000974B974A126898490A401A607B685B684C
:100C2000002B14D0FFF71CFD0300BB6108E0FFF7A9
:100C300017FD0200BB69D31A642B01D903238BE291
:100C40008B4B1A6880239B021340F0D015E0FFF70E
:100C500007FD0300BB6108E0FFF702FD0200BB696E
:100C6000D31A642B01D9032376E2814B1A688023BF
:100C70009B021340F0D100E0C0467B681B68022253
:100C8000134000D169E07A4B5B680C2213400BD013
:100C9000774B5B680C221340082B1CD1744B5A68AD
:100CA00080235B02134016D1714B1B680222134054
:100CB00005D07B68DB68012B01D001234CE26C4A34
:100CC0006B4B1B68F8218B4319007B681B69DB00A9
:100CD0000B43136041E07B68DB68002B24D0644B3E
:100CE000634A126801210A431A60FFF7B9FC030046
:100CF000BB6108E0FFF7B4FC0200BB69D31A022B0A
:100D000001D9032328E25A4B1B6802221340F1D079
:100D1000574A574B1B68F8218B4319007B681B69A6
:100D2000DB000B43136018E0514B514A126801215C
:100D30008A431A60FFF794FC0300BB6108E0FFF7E9
:100D40008FFC0200BB69D31A022B01D9032303E2F3
:100D5000474B1B6802221340F1D17B681B680822B5
:100D6000134036D07B68DB69002B19D0404B404ADA
:100D7000526A01210A435A62FFF772FC0300BB6109
:100D800008E0FFF76DFC0200BB69D31A022B01D902
:100D90000323E1E1364B5B6A02221340F1D018E0F5
:100DA000334B334A526A01218A435A62FFF758FC97
:100DB0000300BB6108E0FFF753FC0200BB69D31AD4
:100DC000022B01D90323C7E1294B5B6A022213409E
:100DD000F1D17B681B680422134000D1B6E01F23C9
:100DE000FB1800221A70224BDA6980235B0513403E
:100DF00011D11F4B1E4AD269802149050A43DA618D
:100E00001B4BDA6980235B051340FB60FB681F23E3
:100E1000FB1801221A70194B1A6880235B001340DB
:100E20001AD1164B154A1268802149000A431A60EC
:100E3000FFF716FC0300BB6108E0FFF711FC02009E
:100E4000BB69D31A642B01D9032385E10B4B1A68C4
:100E500080235B001340F0D07B689B68012B0FD18F
:100E6000034B034A126A01210A431A6236E0C04664
:100E700000100240FFFFFEFFFFFFFBFF007000407D
:100E80007B689B68002B0CD1B54BB54A126A0121D7
:100E90008A431A62B24BB24A126A04218A431A6226
:100EA0001CE07B689B68052B0CD1AD4BAC4A126AE9
:100EB00004210A431A62AA4BA94A126A01210A4371
:100EC0001A620BE0A64BA64A126A01218A431A62F3
:100ED000A34BA34A126A04218A431A627B689B6867
:100EE000002B14D0FFF7BCFB0300BB6109E0FFF748
:100EF000B7FB0200BB69D31A9A4A934201D9032374
:100F00002AE1974B1B6A02221340F0D013E0FFF74F
:100F1000A7FB0300BB6109E0FFF7A2FB0200BB696E
:100F2000D31A904A934201D9032315E18C4B1B6AD3
:100F300002221340F0D11F23FB181B78012B05D18F
:100F4000874B874AD26988490A40DA617B681B6807
:100F50001022134063D07B685B69012B2AD1804B40
:100F60007F4A526B04210A435A637D4B7C4A526B81
:100F700001210A435A63FFF773FB0300BB6108E0DA
:100F8000FFF76EFB0200BB69D31A022B01D90323C2
:100F9000E2E0734B5B6B02221340F1D0704A704B5E
:100FA0005B6BF8218B4319007B689B69DB000B436B
:100FB000536334E07B685B69053311D1684B684A41
:100FC000526B04218A435A63654A654B5B6BF82177
:100FD0008B4319007B689B69DB000B4353631EE066
:100FE0005F4B5F4A526B04210A435A635C4B5C4A75
:100FF000526B01218A435A63FFF732FB0300BB6146
:1010000008E0FFF72DFB0200BB69D31A022B01D9C0
:101010000323A1E0524B5B6B02221340F1D17B68AA
:101020001B6A002B00D196E04D4B5B680C221340ED
:10103000082B00D16AE07B681B6A022B4BD1484B1E
:10104000474A126849490A401A60FFF709FB030042
:10105000BB6108E0FFF704FB0200BB69D31A022B57
:1010600001D9032378E03E4B1A6880239B04134088
:10107000F0D13B4A3A4BDB6A0F218B4319007B6866
:10108000DB6A0B43D362364A354B5B6838491940FB
:101090007B68986A7B685B6A03430B435360304B01
:1010A0002F4A1268802149040A431A60FFF7D8FAD0
:1010B0000300BB6108E0FFF7D3FA0200BB69D31A53
:1010C000022B01D9032347E0254B1A6880239B0498
:1010D0001340F0D03FE0224B214A126823490A40D6
:1010E0001A60FFF7BDFA0300BB6108E0FFF7B8FA2A
:1010F0000200BB69D31A022B01D903232CE0184B41
:101100001A6880239B041340F0D124E07B681B6A9B
:10111000012B01D101231FE0114B5B687B61104B58
:10112000DB6A3B617A6980235B021A407B685B6AF9
:101130009A420ED13B690F221A407B68DB6A9A42C1
:1011400007D17A69F0239B031A407B689B6A9A4215
:1011500001D0012300E000231800BD4608B080BD87
:101160000010024088130000FFFFFFEFFFFFFFFEAB
:10117000FFFFC2FF80B584B000AF786039607B6844
:10118000002B01D10123B2E05B4B1B6801221A4006
:101190003B689A4211D2584B574A126801218A4340
:1011A00011003A680A431A60534B1B6801221A4027
:1011B0003B689A4201D0012399E07B681B680222B8
:1011C000134015D07B681B680422134006D04B4B9C
:1011D0004A4A5268E021C9000A435A60474A474BCD
:1011E0005B68F0218B4319007B689B680B4353605D
:1011F0007B681B680122134040D07B685B68012B31
:1012000007D13E4B1A6880239B02134014D101235F
:101210006DE07B685B68022B07D1384B1A6880232E
:101220009B04134008D1012361E0344B1B68022268
:10123000134001D101235AE0304A304B5B6803214F
:101240008B4319007B685B680B435360FFF708FA18
:101250000300FB6009E0FFF703FA0200FB68D31A02
:10126000274A934201D9032341E0244B5B680C22B7
:101270001A407B685B689B009A42ECD11E4B1B684E
:1012800001221A403B689A4211D91B4B1A4A126834
:1012900001218A4311003A680A431A60164B1B6801
:1012A00001221A403B689A4201D001231FE07B686B
:1012B0001B680422134008D0104A104B5B68114988
:1012C00019407B68DB680B43536000F021F8010094
:1012D0000A4B5B681B090F2213400B4AD35C0A00C0
:1012E000DA400A4B1A600320FFF774F90023180054
:1012F000BD4604B080BDC046002002400010024040
:1013000088130000FFF8FFFF5C1E000800000020AB
:1013100090B58FB000AF1423FB18284A13CA13C32B
:1013200012681A603B1D264A13CA13C312681A605A
:101330000023FB620023BB6200237B6300237B62EC
:1013400000233B631F4B5B68FB62FB6A0C2213406C
:10135000042B02D0082B03D027E01B4B3B6327E074
:10136000FB6A9B0C0F2213401422BA18D35C7B62D9
:10137000144BDB6A0F2213403A1DD35CBB62FA6A3E
:1013800080235B02134009D0B96A0F48FEF7BCFE08
:1013900003001A007B6A53437B6303E07B6A0B4ABA
:1013A00053437B637B6B3B6302E0074B3B63C0466D
:1013B0003B6B1800BD460FB090BDC0463C1E0008F8
:1013C0004C1E00080010024000127A0000093D0087
:1013D00080B582B000AF78607B68002B01D101231B
:1013E00042E07B683D229B5CDBB2002B07D17B682F
:1013F0003C22002199547B681800FFF757F87B685E
:101400003D22022199547B681A687B6804331900D5
:10141000100000F041FA7B684622012199547B6854
:101420003E22012199547B683F22012199547B6817
:101430004022012199547B684122012199547B6803
:101440004222012199547B684322012199547B68EF
:101450004422012199547B684522012199547B68DB
:101460003D220121995400231800BD4602B080BDE1
:1014700080B582B000AF78607B68002B01D101237A
:1014800042E07B683D229B5CDBB2002B07D17B688E
:101490003C22002199547B68180000F039F87B68E1
:1014A0003D22022199547B681A687B680433190035
:1014B000100000F0F1F97B684622012199547B6805
:1014C0003E22012199547B683F22012199547B6877
:1014D0004022012199547B684122012199547B6863
:1014E0004222012199547B684322012199547B684F
:1014F0004422012199547B684522012199547B683B
:101500003D220121995400231800BD4602B080BD40
:1015100080B582B000AF7860C046BD4602B080BDE5
:1015200080B584B000AF786039603B68002B08D18B
:101530007B683E229B5CDBB2013B5A1E9341DBB2CF
:101540001FE03B68042B08D17B683F229B5CDBB229
:10155000013B5A1E9341DBB213E03B68082B08D1D4
:101560007B6840229B5CDBB2013B5A1E9341DBB29D
:1015700007E07B6841229B5CDBB2013B5A1E934132
:10158000DBB2002B01D0012364E03B68002B04D1C7
:101590007B683E220221995413E03B68042B04D15E
:1015A0007B683F22022199540BE03B68082B04D151
:1015B0007B6840220221995403E07B68412202218A
:1015C00099547B681B6839680122180000F0B0FB51
:1015D0007B681B68214A934209D07B681B68204ABC
:1015E000934204D07B681B681E4A934201D10123B9
:1015F00000E00023002B08D07B681B687A68126823
:10160000526C802109020A435A647B681B68134AA2
:10161000934204D07B681B68134A934211D17B68C4
:101620001B689B6807221340FB60FB68062B10D0E9
:101630007B681B687A681268126801210A431A6085
:1016400007E07B681B687A681268126801210A4308
:101650001A6000231800BD4604B080BD002C014074
:1016600000440140004801400004004080B582B0C1
:1016700000AF786039607B68002B01D1012342E024
:101680007B683D229B5CDBB2002B07D17B683C2250
:10169000002199547B68180000F039F87B683D22DE
:1016A000022199547B681A687B6804331900100082
:1016B00000F0F2F87B681B687A68126812680821EB
:1016C0008A431A607B681B687A68126811683A68F6
:1016D0000A431A607B684622012199547B683E22A6
:1016E000012199547B683F22012199547B68422251
:1016F000012199547B684322012199547B683D2242
:101700000121995400231800BD4602B080BD80B568
:1017100082B000AF7860C046BD4602B080BD000018
:1017200080B586B000AFF860B9607A601723FB1807
:1017300000221A70FB683C229B5C012B01D1022322
:10174000A3E0FB683C22012199547B68042B29D03B
:1017500002D8002B05D08CE0082B46D00C2B65D08E
:1017600087E0FB681B68BA681100180000F000F9F8
:10177000FB681B68FA681268926908210A439A613B
:10178000FB681B68FA681268926904218A439A61AF
:10179000FB681B68FA6812689169BA6812690A43A3
:1017A0009A616BE0FB681B68BA681100180000F0D2
:1017B0005DF9FB681B68FA6812689269802109016B
:1017C0000A439A61FB681B68FA681268926931499A
:1017D0000A409A61FB681B68FA6812689169BA68E6
:1017E000126912020A439A6148E0FB681B68BA68F2
:1017F0001100180000F0B8F9FB681B68FA6812685D
:10180000D26908210A43DA61FB681B68FA6812682A
:10181000D26904218A43DA61FB681B68FA6812689E
:10182000D169BA6812690A43DA6127E0FB681B686C
:10183000BA681100180000F017FAFB681B68FA6814
:101840001268D269802109010A43DA61FB681B68CA
:10185000FA681268D2690F490A40DA61FB681B68AE
:10186000FA681268D169BA68126912020A43DA6129
:1018700004E01723FB1801221A70C046FB683C22C3
:10188000002199541723FB181B781800BD4606B099
:1018900080BDC046FFFBFFFF80B584B000AF78601D
:1018A00039607B681B68FB607B682B4A934203D0DE
:1018B0007B682A4A934208D1FB6870229343FB60FD
:1018C0003B685B68FA681343FB607B68224A93427B
:1018D0000FD07B68214A93420BD07B68204A934209
:1018E00007D07B681F4A934203D07B681E4A93420D
:1018F00008D1FB681D4A1340FB603B68DB68FA684F
:101900001343FB60FB68802293431A003B685B69CA
:101910001343FB607B68FA681A603B689A687B68CF
:10192000DA623B681A687B689A627B680A4A93426B
:1019300007D07B680B4A934203D07B680A4A9342E4
:1019400003D13B681A697B681A637B6801225A617C
:10195000C046BD4604B080BD002C014000040040DC
:10196000002000400044014000480140FFFCFFFF10
:1019700080B586B000AF786039607B681B6A012251
:1019800093431A007B681A627B681B6A7B617B68E1
:101990005B683B617B689B69FB60FB6870229343DB
:1019A000FB60FB6803229343FB603B681B68FA689B
:1019B0001343FB607B69022293437B613B689B6816
:1019C0007A6913437B617B68234A934207D07B6823
:1019D000224A934203D07B68214A93420CD17B690F
:1019E000082293437B613B68DB687A6913437B6120
:1019F0007B69042293437B617B68174A934207D03B
:101A00007B68164A934203D07B68154A934211D1F2
:101A10003B69144A13403B613B69134A13403B61E5
:101A20003B685B693A6913433B613B689B693A6970
:101A300013433B617B683A695A607B68FA689A6134
:101A40003B685A687B685A637B687A691A62C04649
:101A5000BD4606B080BDC046002C01400044014098
:101A600000480140FFFEFFFFFFFDFFFF80B586B08D
:101A700000AF786039607B681B6A102293431A00BC
:101A80007B681A627B681B6A7B617B685B683B6171
:101A90007B689B69FB60FB682C4A1340FB60FB681A
:101AA0002B4A1340FB603B681B681B02FA68134318
:101AB000FB607B69202293437B613B689B681B0131
:101AC0007A6913437B617B68224A93420DD17B691B
:101AD000802293437B613B68DB681B017A69134377
:101AE0007B617B69402293437B617B68194A934207
:101AF00007D07B68184A934203D07B68174A934209
:101B000013D13B69164A13403B613B69154A1340A8
:101B10003B613B685B699B003A6913433B613B68EF
:101B20009B699B003A6913433B617B683A695A6041
:101B30007B68FA689A613B685A687B689A637B683D
:101B40007A691A62C046BD4606B080BDFF8FFFFFAE
:101B5000FFFCFFFF002C0140004401400048014011
:101B6000FFFBFFFFFFF7FFFF80B586B000AF786097
:101B700039607B681B6A334A1A407B681A627B684B
:101B80001B6A7B617B685B683B617B68DB69FB6030
:101B9000FB6870229343FB60FB6803229343FB6066
:101BA0003B681B68FA681343FB607B69264A134055
:101BB0007B613B689B681B027A6913437B617B688E
:101BC000224A93420DD17B69214A13407B613B68D5
:101BD000DB681B027A6913437B617B691D4A1340F2
:101BE0007B617B68194A934207D07B681A4A93420B
:101BF00003D07B68194A934213D13B69184A1340BA
:101C00003B613B69174A13403B613B685B691B01C1
:101C10003A6913433B613B689B691B013A69134373
:101C20003B617B683A695A607B68FA68DA613B68B5
:101C30005A687B68DA637B687A691A62C046BD4677
:101C400006B080BDFFFEFFFFFFFDFFFF002C01403F
:101C5000FFF7FFFFFFFBFFFF00440140004801408A
:101C6000FFEFFFFFFFDFFFFF80B586B000AF7860BA
:101C700039607B681B6A264A1A407B681A627B6857
:101C80001B6A3B617B685B687B617B68DB69FB602F
:101C9000FB68204A1340FB60FB681F4A1340FB604F
:101CA0003B681B681B02FA681343FB603B691B4AD5
:101CB00013403B613B689B681B033A6913433B61DC
:101CC0007B68174A934207D07B68164A934203D039
:101CD0007B68154A934209D17B69144A13407B61A2
:101CE0003B685B699B017A6913437B617B687A6916
:101CF0005A607B68FA68DA613B685A687B681A64E4
:101D00007B683A691A62C046BD4606B080BDC046CF
:101D1000FFEFFFFFFF8FFFFFFFFCFFFFFFDFFFFF76
:101D2000002C01400044014000480140FFBFFFFF7C
:101D300080B586B000AFF860B9607A60BB681F22DA
:101D4000134001229A4013007B61FB681B6A7A6989
:101D5000D2431A40FB681A62FB681A6ABB681F21EB
:101D60000B40796899400B001A43FB681A62C04621
:101D7000BD4606B080BD00000D4885460D480E49A1
:101D80000E4A002302E0D458C4500433C4188C42D5
:101D9000F9D30B4A0B4C002301E013600432A2423A
:101DA000FBD3FEF7FEFB00F011F8FEF739FAFEE771
:101DB00000100020000000200C000020741E00080D
:101DC0000C00002078000020FEE7000070B500261F
:101DD0000C4D0D4C641BA410A64209D1002600F046
:101DE00021F80A4D0A4C641BA410A64205D170BD0F
:101DF000B300EB5898470136EEE7B300EB5898472D
:101E00000136F2E76C1E00086C1E00086C1E00080C
:101E1000701E000803008218934200D170471970A9
:101E20000133F9E7F8B5C046F8BC08BC9E467047D8
:0C1E3000F8B5C046F8BC08BC9E467047E0
:101E3C0002030405060708090A0B0C0D0E0F1010FF
:101E4C000102030405060708090A0B0C0D0E0F10FE
:101E5C00000000000000000001020304060708094E
:041E6C00E900000881
:041E7000C1000008A5
:0C1E740000127A000400000001000000D1
:0400000508001D7959
:00000001FF
